{
  "_format": "hh-sol-artifact-1",
  "contractName": "Audit",
  "sourceName": "contracts/Audit.sol",
  "abi": [
    {
      "anonymous": false,
      "inputs": [
        {
          "indexed": false,
          "internalType": "uint256",
          "name": "id",
          "type": "uint256"
        },
        {
          "indexed": true,
          "internalType": "address",
          "name": "reporter",
          "type": "address"
        },
        {
          "indexed": false,
          "internalType": "string",
          "name": "name",
          "type": "string"
        }
      ],
      "name": "ReportAdded",
      "type": "event"
    },
    {
      "anonymous": false,
      "inputs": [
        {
          "indexed": false,
          "internalType": "uint256",
          "name": "id",
          "type": "uint256"
        }
      ],
      "name": "ReportDeleted",
      "type": "event"
    },
    {
      "anonymous": false,
      "inputs": [
        {
          "indexed": false,
          "internalType": "uint256",
          "name": "id",
          "type": "uint256"
        },
        {
          "indexed": false,
          "internalType": "enum Audit.Status",
          "name": "newStatus",
          "type": "uint8"
        }
      ],
      "name": "ReportStatusUpdated",
      "type": "event"
    },
    {
      "inputs": [
        {
          "internalType": "string",
          "name": "name",
          "type": "string"
        },
        {
          "internalType": "string",
          "name": "details",
          "type": "string"
        }
      ],
      "name": "addReport",
      "outputs": [],
      "stateMutability": "nonpayable",
      "type": "function"
    },
    {
      "inputs": [
        {
          "internalType": "uint256",
          "name": "id",
          "type": "uint256"
        }
      ],
      "name": "deleteReport",
      "outputs": [],
      "stateMutability": "nonpayable",
      "type": "function"
    },
    {
      "inputs": [
        {
          "internalType": "uint256",
          "name": "id",
          "type": "uint256"
        }
      ],
      "name": "getReport",
      "outputs": [
        {
          "components": [
            {
              "internalType": "uint256",
              "name": "id",
              "type": "uint256"
            },
            {
              "internalType": "string",
              "name": "name",
              "type": "string"
            },
            {
              "internalType": "string",
              "name": "details",
              "type": "string"
            },
            {
              "internalType": "address",
              "name": "reporter",
              "type": "address"
            },
            {
              "internalType": "uint256",
              "name": "timestamp",
              "type": "uint256"
            },
            {
              "internalType": "enum Audit.Status",
              "name": "status",
              "type": "uint8"
            }
          ],
          "internalType": "struct Audit.Report",
          "name": "",
          "type": "tuple"
        }
      ],
      "stateMutability": "view",
      "type": "function"
    },
    {
      "inputs": [],
      "name": "nextReportId",
      "outputs": [
        {
          "internalType": "uint256",
          "name": "",
          "type": "uint256"
        }
      ],
      "stateMutability": "view",
      "type": "function"
    },
    {
      "inputs": [
        {
          "internalType": "uint256",
          "name": "",
          "type": "uint256"
        }
      ],
      "name": "reports",
      "outputs": [
        {
          "internalType": "uint256",
          "name": "id",
          "type": "uint256"
        },
        {
          "internalType": "string",
          "name": "name",
          "type": "string"
        },
        {
          "internalType": "string",
          "name": "details",
          "type": "string"
        },
        {
          "internalType": "address",
          "name": "reporter",
          "type": "address"
        },
        {
          "internalType": "uint256",
          "name": "timestamp",
          "type": "uint256"
        },
        {
          "internalType": "enum Audit.Status",
          "name": "status",
          "type": "uint8"
        }
      ],
      "stateMutability": "view",
      "type": "function"
    },
    {
      "inputs": [
        {
          "internalType": "uint256",
          "name": "id",
          "type": "uint256"
        },
        {
          "internalType": "enum Audit.Status",
          "name": "newStatus",
          "type": "uint8"
        }
      ],
      "name": "updateStatus",
      "outputs": [],
      "stateMutability": "nonpayable",
      "type": "function"
    }
  ],
  "bytecode": "0x6080604052348015600f57600080fd5b506113f68061001f6000396000f3fe608060405234801561001057600080fd5b50600436106100625760003560e01c80631e2160d1146100675780633a1b3d31146100835780634e7f9b191461009f5780636e79bbf6146100cf5780637a3e0066146100ed578063c942adf714610109575b600080fd5b610081600480360381019061007c91906109f1565b61013e565b005b61009d60048036038101906100989190610a43565b6102e1565b005b6100b960048036038101906100b491906109f1565b6103a0565b6040516100c69190610c6a565b60405180910390f35b6100d76105da565b6040516100e49190610c9b565b60405180910390f35b61010760048036038101906101029190610deb565b6105e0565b005b610123600480360381019061011e91906109f1565b610773565b60405161013596959493929190610ecb565b60405180910390f35b6000548110610182576040517f08c379a000000000000000000000000000000000000000000000000000000000815260040161017990610f86565b60405180910390fd5b3373ffffffffffffffffffffffffffffffffffffffff166001600083815260200190815260200160002060030160009054906101000a900473ffffffffffffffffffffffffffffffffffffffff1673ffffffffffffffffffffffffffffffffffffffff1614610226576040517f08c379a000000000000000000000000000000000000000000000000000000000815260040161021d90610ff2565b60405180910390fd5b6001600082815260200190815260200160002060008082016000905560018201600061025291906108ec565b60028201600061026291906108ec565b6003820160006101000a81549073ffffffffffffffffffffffffffffffffffffffff021916905560048201600090556005820160006101000a81549060ff021916905550507fc63446f6a3f09f152286ed59c9e80460d70feb0907851e18d99af034d42fe2fb816040516102d69190610c9b565b60405180910390a150565b6000548210610325576040517f08c379a000000000000000000000000000000000000000000000000000000000815260040161031c90610f86565b60405180910390fd5b806001600084815260200190815260200160002060050160006101000a81548160ff0219169083600281111561035e5761035d610b63565b5b02179055507fdc8385b6b8a0c9999c629372618305050ca537bdcc7651ab8586f6d1b1c43a6b8282604051610394929190611012565b60405180910390a15050565b6103a861092c565b60005482106103ec576040517f08c379a00000000000000000000000000000000000000000000000000000000081526004016103e390610f86565b60405180910390fd5b600160008381526020019081526020016000206040518060c0016040529081600082015481526020016001820180546104249061106a565b80601f01602080910402602001604051908101604052809291908181526020018280546104509061106a565b801561049d5780601f106104725761010080835404028352916020019161049d565b820191906000526020600020905b81548152906001019060200180831161048057829003601f168201915b505050505081526020016002820180546104b69061106a565b80601f01602080910402602001604051908101604052809291908181526020018280546104e29061106a565b801561052f5780601f106105045761010080835404028352916020019161052f565b820191906000526020600020905b81548152906001019060200180831161051257829003601f168201915b505050505081526020016003820160009054906101000a900473ffffffffffffffffffffffffffffffffffffffff1673ffffffffffffffffffffffffffffffffffffffff1673ffffffffffffffffffffffffffffffffffffffff168152602001600482015481526020016005820160009054906101000a900460ff1660028111156105bd576105bc610b63565b5b60028111156105cf576105ce610b63565b5b815250509050919050565b60005481565b6040518060c0016040528060005481526020018381526020018281526020013373ffffffffffffffffffffffffffffffffffffffff1681526020014281526020016000600281111561063557610634610b63565b5b815250600160008054815260200190815260200160002060008201518160000155602082015181600101908161066b9190611247565b5060408201518160020190816106819190611247565b5060608201518160030160006101000a81548173ffffffffffffffffffffffffffffffffffffffff021916908373ffffffffffffffffffffffffffffffffffffffff1602179055506080820151816004015560a08201518160050160006101000a81548160ff021916908360028111156106fe576106fd610b63565b5b02179055509050503373ffffffffffffffffffffffffffffffffffffffff167f9138ccac8d15498da1d5bddeb89c9459ae1fbc6cbe2b3b03fbc4486bb2db321e60005484604051610750929190611319565b60405180910390a260008081548092919061076a90611378565b91905055505050565b600160205280600052604060002060009150905080600001549080600101805461079c9061106a565b80601f01602080910402602001604051908101604052809291908181526020018280546107c89061106a565b80156108155780601f106107ea57610100808354040283529160200191610815565b820191906000526020600020905b8154815290600101906020018083116107f857829003601f168201915b50505050509080600201805461082a9061106a565b80601f01602080910402602001604051908101604052809291908181526020018280546108569061106a565b80156108a35780601f10610878576101008083540402835291602001916108a3565b820191906000526020600020905b81548152906001019060200180831161088657829003601f168201915b5050505050908060030160009054906101000a900473ffffffffffffffffffffffffffffffffffffffff16908060040154908060050160009054906101000a900460ff16905086565b5080546108f89061106a565b6000825580601f1061090a5750610929565b601f016020900490600052602060002090810190610928919061098a565b5b50565b6040518060c00160405280600081526020016060815260200160608152602001600073ffffffffffffffffffffffffffffffffffffffff168152602001600081526020016000600281111561098457610983610b63565b5b81525090565b5b808211156109a357600081600090555060010161098b565b5090565b6000604051905090565b600080fd5b600080fd5b6000819050919050565b6109ce816109bb565b81146109d957600080fd5b50565b6000813590506109eb816109c5565b92915050565b600060208284031215610a0757610a066109b1565b5b6000610a15848285016109dc565b91505092915050565b60038110610a2b57600080fd5b50565b600081359050610a3d81610a1e565b92915050565b60008060408385031215610a5a57610a596109b1565b5b6000610a68858286016109dc565b9250506020610a7985828601610a2e565b9150509250929050565b610a8c816109bb565b82525050565b600081519050919050565b600082825260208201905092915050565b60005b83811015610acc578082015181840152602081019050610ab1565b60008484015250505050565b6000601f19601f8301169050919050565b6000610af482610a92565b610afe8185610a9d565b9350610b0e818560208601610aae565b610b1781610ad8565b840191505092915050565b600073ffffffffffffffffffffffffffffffffffffffff82169050919050565b6000610b4d82610b22565b9050919050565b610b5d81610b42565b82525050565b7f4e487b7100000000000000000000000000000000000000000000000000000000600052602160045260246000fd5b60038110610ba357610ba2610b63565b5b50565b6000819050610bb482610b92565b919050565b6000610bc482610ba6565b9050919050565b610bd481610bb9565b82525050565b600060c083016000830151610bf26000860182610a83565b5060208301518482036020860152610c0a8282610ae9565b91505060408301518482036040860152610c248282610ae9565b9150506060830151610c396060860182610b54565b506080830151610c4c6080860182610a83565b5060a0830151610c5f60a0860182610bcb565b508091505092915050565b60006020820190508181036000830152610c848184610bda565b905092915050565b610c95816109bb565b82525050565b6000602082019050610cb06000830184610c8c565b92915050565b600080fd5b600080fd5b7f4e487b7100000000000000000000000000000000000000000000000000000000600052604160045260246000fd5b610cf882610ad8565b810181811067ffffffffffffffff82111715610d1757610d16610cc0565b5b80604052505050565b6000610d2a6109a7565b9050610d368282610cef565b919050565b600067ffffffffffffffff821115610d5657610d55610cc0565b5b610d5f82610ad8565b9050602081019050919050565b82818337600083830152505050565b6000610d8e610d8984610d3b565b610d20565b905082815260208101848484011115610daa57610da9610cbb565b5b610db5848285610d6c565b509392505050565b600082601f830112610dd257610dd1610cb6565b5b8135610de2848260208601610d7b565b91505092915050565b60008060408385031215610e0257610e016109b1565b5b600083013567ffffffffffffffff811115610e2057610e1f6109b6565b5b610e2c85828601610dbd565b925050602083013567ffffffffffffffff811115610e4d57610e4c6109b6565b5b610e5985828601610dbd565b9150509250929050565b600082825260208201905092915050565b6000610e7f82610a92565b610e898185610e63565b9350610e99818560208601610aae565b610ea281610ad8565b840191505092915050565b610eb681610b42565b82525050565b610ec581610bb9565b82525050565b600060c082019050610ee06000830189610c8c565b8181036020830152610ef28188610e74565b90508181036040830152610f068187610e74565b9050610f156060830186610ead565b610f226080830185610c8c565b610f2f60a0830184610ebc565b979650505050505050565b7f496e76616c6964207265706f7274204944000000000000000000000000000000600082015250565b6000610f70601183610e63565b9150610f7b82610f3a565b602082019050919050565b60006020820190508181036000830152610f9f81610f63565b9050919050565b7f4f6e6c79207265706f727465722063616e2064656c6574650000000000000000600082015250565b6000610fdc601883610e63565b9150610fe782610fa6565b602082019050919050565b6000602082019050818103600083015261100b81610fcf565b9050919050565b60006040820190506110276000830185610c8c565b6110346020830184610ebc565b9392505050565b7f4e487b7100000000000000000000000000000000000000000000000000000000600052602260045260246000fd5b6000600282049050600182168061108257607f821691505b6020821081036110955761109461103b565b5b50919050565b60008190508160005260206000209050919050565b60006020601f8301049050919050565b600082821b905092915050565b6000600883026110fd7fffffffffffffffffffffffffffffffffffffffffffffffffffffffffffffffff826110c0565b61110786836110c0565b95508019841693508086168417925050509392505050565b6000819050919050565b600061114461113f61113a846109bb565b61111f565b6109bb565b9050919050565b6000819050919050565b61115e83611129565b61117261116a8261114b565b8484546110cd565b825550505050565b600090565b61118761117a565b611192818484611155565b505050565b5b818110156111b6576111ab60008261117f565b600181019050611198565b5050565b601f8211156111fb576111cc8161109b565b6111d5846110b0565b810160208510156111e4578190505b6111f86111f0856110b0565b830182611197565b50505b505050565b600082821c905092915050565b600061121e60001984600802611200565b1980831691505092915050565b6000611237838361120d565b9150826002028217905092915050565b61125082610a92565b67ffffffffffffffff81111561126957611268610cc0565b5b611273825461106a565b61127e8282856111ba565b600060209050601f8311600181146112b1576000841561129f578287015190505b6112a9858261122b565b865550611311565b601f1984166112bf8661109b565b60005b828110156112e7578489015182556001820191506020850194506020810190506112c2565b868310156113045784890151611300601f89168261120d565b8355505b6001600288020188555050505b505050505050565b600060408201905061132e6000830185610c8c565b81810360208301526113408184610e74565b90509392505050565b7f4e487b7100000000000000000000000000000000000000000000000000000000600052601160045260246000fd5b6000611383826109bb565b91507fffffffffffffffffffffffffffffffffffffffffffffffffffffffffffffffff82036113b5576113b4611349565b5b60018201905091905056fea2646970667358221220673d729ff8e633d6acf8f99e0fb7c5597e22039b54401b7a71d8b43b0054176c64736f6c634300081c0033",
  "linkReferences": {},
  "deployedLinkReferences": {}
}